:10C000008E7FFFBDC026BDC04186FFB7BC000101C9
:10C010000101010101018600B7BC00BDC0EE27E9A6
:10C02000BDC0347EC009B7A001860BB7A002861E32
:10C03000B7A0033936B6A001841027F932B7A000A3
:10C0400039BDC0DE86ADB7A101B6A10184012703C9
:10C05000B6A100BDC0DE8660B7A101BDC0DE860806
:10C06000B7A100BDC0DE86AAB7A101BDC0E6B6A1DA
:10C070000081552703C60139BDC0DE86ABB7A101DB
:10C08000BDC0E6B6A10081012603C60239810226A1
:10C0900003C6033981032603C6043981042603C677
:10C0A000053981002703C60639BDC0DE86AEB7A1BB
:10C0B00001BDC0DE86FFB7A100D682BDC180BDC074
:10C0C000E6B6A10081FA2713C60739BDC0DE866037
:10C0D000B7A101BDC0DE8668B7A100C60039B6A110
:10C0E00001840226F939B6A101840127F939B6A1E4
:10C0F000018401260139B6A1009700BDC0FF399621
:10C1000000275916C4802708847F168601970317D5
:10C11000812A273581362731169602970117970213
:10C1200096038101260F96019102270201018600E4
:10C1300097037EC15CC60196042702C602BDC16199
:10C14000271A16860097001739960381012707865C
:10C150000197047EC15C86009704970386009700D0
:10C1600039CEC539A6002717910227060808087E90
:10C17000C164C1012603A60139C1022602A6023903
:10C1800086FF01014A26FB5A26F6398600B7A4002D
:10C190008680B7A40086D0B7A4008681B7A40086A5
:10C1A00002B7A4008682B7A4008600B7A4008684E4
:10C1B000B7A4008620B7A4008685B7A4008600B780
:10C1C000A4008686B7A40086F5B7A4008687B7A426
:10C1D00000860036860136CE0300DF05CEC239BDAB
:10C1E000C1E33932B7A400328A80B7A400A600B7F1
:10C1F000A400087A000626F57A000526F03932B741
:10C20000A40032B7A400A600B7A400087A0006264E
:10C21000F57A000526F0398600B7A40001018640B2
:10C22000B7A4000101CE40008600B7A400010101BF
:10C2300001010101010926F03900000000000000A1
:10C240000030787830300030006C6C6C00000000FA
:10C25000006C6CFE6CFE6C6C00307CC0780CF830AE
:10C260000000C6CC183066C600386C3876DCCC7658
:10C27000006060C00000000000183060606030188E
:10C2800000603018181830600000663CFF3C660003
:10C2900000003030FC303000000000000000303082
:10C2A00060000000FC0000000000000000003030D2
:10C2B00000060C183060C080007CC6CEDEF6E67C3E
:10C2C00000307030303030FC0078CC0C3860CCFC62
:10C2D0000078CC0C380CCC78001C3C6CCCFE0C1ECE
:10C2E00000FCC0F80C0CCC78003860C0F8CCCC78DE
:10C2F00000FCCC0C183030300078CCCC78CCCC782A
:10C300000078CCCC7C0C187000003030000030304D
:10C31000000030300000303060183060C0603018ED
:10C32000000000FC0000FC00006030180C183060B9
:10C330000078CC0C18300030007CC6DEDEDEC07821
:10C34000003078CCCCFCCCCC00FC66667C6666FC0D
:10C35000003C66C0C0C0663C00F86C6666666CF85F
:10C3600000FE6268786862FE00FE6268786860F0CD
:10C37000003C66C0C0CE663E00CCCCCCFCCCCCCC65
:10C380000078303030303078001E0C0C0CCCCC787B
:10C3900000E6666C786C66E600F06060606266FEDF
:10C3A00000C6EEFEFED6C6C600C6E6F6DECEC6C6A1
:10C3B00000386CC6C6C66C3800FC66667C6060F0EF
:10C3C0000078CCCCCCDC781C00FC66667C6C66E625
:10C3D0000078CCE0701CCC7800FCB4303030307881
:10C3E00000CCCCCCCCCCCCFC00CCCCCCCCCC7830E5
:10C3F00000C6C6C6D6FEEEC600C6C66C38386CC6C9
:10C4000000CCCCCC7830307800FEC68C183266FE7A
:10C41000007860606060607800C06030180C0602D0
:10C4200000781818181818780010386CC60000002A
:10C430000000000000000000FF3030180000000085
:10C44000000000780C7CCC7600E060607C6666DCE6
:10C4500000000078CCC0CC78001C0C0C7CCCCC76D6
:10C4600000000078CCFCC07800386C60F06060F0B0
:10C4700000000076CCCC7C0CF8E0606C766666E65A
:10C480000030007030303078000C000C0C0CCCCC3C
:10C4900078E060666C786CE6007030303030307870
:10C4A000000000CCFEFED6C6000000F8CCCCCCCC00
:10C4B00000000078CCCCCC78000000DC66667C60A4
:10C4C000F0000076CCCC7C0C1E0000DC766660F0C0
:10C4D0000000007CC0780CF80010307C303034183C
:10C4E000000000CCCCCCCC76000000CCCCCC78309A
:10C4F000000000C6D6FEFE6C000000C66C386CC69C
:10C50000000000CCCCCC7C0CF80000FC983064FC23
:10C51000001C3030E030301C0018181800181818B3
:10C5200000E030301C3030E00076DC00000000001D
:10C53000000010386CC6C6FE0029607E01030302AD
:10C5400031210332400433230534240635250736D0
:10C550005E08372609382A0A39280B30290C2D5F46
:10C560000D3D2B0E08080F09091071511177571254
:10C570006545137252147454157959167555176917
:10C5800049186F4F1970501A5B7B1B5D7D3A000094
:10C590001E61411F7353206444216646226747236E
:10C5A0006848246A4A256B4B266C4C273B3A28275F
:10C5B000221C0D0D2C7A5A2D78582E63432F765657
:10C5C000306242316E4E326D4D332C3C342E3E354E
:08C5D0002F3F3920200000007C
:02FFFE00C00041
:00000001FF
